:020000040800F2
:100000008011002055020008253600081529000837
:100010002336000829080008ED460008000000000B
:10002000000000000000000000000000373D000854
:100030002B08000800000000473600084D3E00086D
:100040006F0200086F0200086F020008253A0008DE
:100050006F0200086F0200086F0200086F020008BC
:100060006F0200086F0200086F0200086F020008AC
:100070006F0200086F0200086F0200086F0200089C
:100080006F0200086F0200086F0200086F0200088C
:100090006F0200086F0200086F0200086F0200087C
:1000A0006F0200086F0200086F0200086F0200086C
:1000B0006F0200086F0200086F0200086F0200085C
:1000C0006F0200086F0200086F0200086F0200084C
:1000D0006F020008A14600086F0200086F020008C6
:1000E0006F020008113800086F0200086F02000854
:1000F0006F0200086F0200086F0200086F0200081C
:100100006F0200086F020008E93E00086F02000855
:100110006F0200086F0200086F020008F53E000839
:100120006F0200086F0200086F0200086F020008EB
:100130006F0200086F0200086F0200086F020008DB
:100140006F0200086F0200086F0200086F020008CB
:100150006F0200086F0200086F0200086F020008BB
:100160006F0200086F0200086F0200086F020008AB
:100170006F0200086F0200086F0200080000000014
:100180006F0200086F0200086F0200086F0200088B
:100190006F0200086F0200086F0200086F0200087B
:1001A0006F0200086F0200086F02000800F002F8FA
:1001B00000F041F80AA090E8000C82448344AAF1C0
:1001C0000107DA4501D100F036F8AFF2090EBAE8BE
:1001D0000F0013F0010F18BFFB1A43F0010318477B
:1001E00094970000B4970000103A24BF78C878C1F3
:1001F000FAD8520724BF30C830C144BF04680C602D
:10020000704700000023002400250026103A28BF74
:1002100078C1FBD8520728BF30C148BF0B60704778
:10022000642900F07380002070471FB504F060FF60
:100230001FBD10B510BD00F07CFA1146FFF7F5FFA9
:1002400004F080FE00F09AFA03B4FFF7F2FF03BC5B
:1002500000F0A4FA0948804709480047FEE7FEE796
:10026000FEE7FEE7FEE7FEE7FEE7FEE7FEE7FEE766
:1002700004480549054A064B70470000513E0008F6
:10028000AD010008800B002080110020800D0020AF
:10029000800D00200FB41CB5074B06AA7B446946AD
:1002A0000090059800F02DFA0020694600F03CFA15
:1002B0001CBC5DF814FB00008904000070B5044606
:1002C00085690068C10601D5302600E02026C007F8
:1002D00007D070BDD4E9012130469047206A401C08
:1002E00020626D1EF6D570BD70B504468569007834
:1002F000C00707D170BDD4E9012120209047206AB2
:10030000401C20626D1EF6D570BD00002DE9F04145
:100310000646002410687529314616A510D0AFF3A3
:100320000080002802DA404213A507E031688A07FE
:1003300001D512A502E0490704D511A5012401E069
:10034000AFF3008000210A2206F1240709E0B0FB88
:10035000F2FCB0FBF2F302FB1C003030785418467C
:10036000491C0028F3D123462A463046BDE8F04117
:1003700000F069B9000000002D0000002B00000013
:10038000200000002DE9F05F894604464FF0000A86
:10039000DFF824B1FB44C0F820A02046E16888477C
:1003A00000287DD0252806D0D4E901219047206A75
:1003B000401C2062F1E700255F462046E16888473F
:1003C0002028064607DB312E05D2B81910F8200C7C
:1003D00008B10543F1E7A80701D525F00405C4F8E5
:1003E0001CA00027C4F818A02A2E09D0304604F01B
:1003F0006AFA38B304EB8708303EC8F8186019E091
:1004000059F8041B204604EB87029161E168884794
:10041000012F064618D1E069002820DA25F02005D2
:100420001DE0D8F8180000EB800006EB40003038E3
:10043000C8F818002046E1688847064604F043FAE9
:100440000028EED1012F0AD02E2E08D12046E168D7
:1004500088477F1C0646022F45F02005C4DBA069B3
:10046000002803DA404245F00105A061E80701D009
:1004700025F01005A6B1A6F14100192802D82036B2
:1004800045F400654A463146204625604D46FFF753
:10049000C7FE60B1012807D0ED1D25F0070000E080
:1004A00007E000F1080978E705F1040975E730462F
:1004B0007AE7206ABDE8F09FBC950000401ECAB2F2
:1004C00010F8011F8A4202D00029F9D1002070479C
:1004D000032A40F2308010F0030C00F0158011F870
:1004E000013BBCF1020F624498BF11F801CB00F848
:1004F000013B38BF11F8013BA2F1040298BF00F89C
:1005000001CB38BF00F8013B11F0030300F0258058
:10051000083AC0F0088051F8043B083A51F804CB7F
:10052000A0E80810F5E7121D5CBF51F8043B40F845
:10053000043BAFF30080D20724BF11F8013B11F850
:1005400001CB48BF11F8012B24BF00F8013B00F894
:1005500001CB48BF00F8012B704710B5203AC0F01E
:100560000B80B1E81850203AA0E81850B1E81850B4
:10057000A0E81850BFF4F5AF5FEA027C24BFB1E8F1
:100580001850A0E8185044BF18C918C0BDE8104062
:100590005FEA827C24BF51F8043B40F8043B08BF6B
:1005A0007047D20728BF31F8023B48BF11F8012B32
:1005B00028BF20F8023B48BF00F8012B704700001D
:1005C0004FF0013C50F8042B51F8043B9A4221D1E2
:1005D000A2EB0C03934313EACC1317D150F8042B6E
:1005E00051F8043B9A4215D1A2EB0C03934313EA52
:1005F000CC130BD150F8042B51F8043B9A4209D18B
:10060000A2EB0C03934313EACC13DBD04FF00000B2
:10061000704700BFD01A01BAB1FA81F101F0180198
:1006200022FA01F0CB40C1F12001DBB2C0B2C01A06
:100630002CFA01F3D11A914311EAC311E6D17047A4
:100640007047704770472DE9F0470D46994692462E
:10065000044600F124080168880604D5E06921F009
:100660001001216000E00120A84201DD471B00E0ED
:100670000027A1697A1902EB0900081AA061207805
:10068000C00602D42046FFF719FE002608E0D4E990
:1006900001211AF806009047206A401C761C20624F
:1006A0004E45F4DB2078C0060AD52046FFF706FE4B
:1006B00006E0D4E9012130209047206A401C2062E6
:1006C000381EA7F10107F4DC07E0D4E9012118F88E
:1006D00005009047206A401C2062281EA5F10105F4
:1006E000F3DC2046FFF700FE2078000602D502204A
:1006F000BDE8F0870120FBE701694A1C0261087828
:10070000704700B58FB0CDE9013100210591054951
:100710007944CDE9031011466846FFF733FE0FB068
:1007200000BD0000E5FFFFFF0A6802F8010B0A6048
:100730007047754600F02CF8AE46050069465346F2
:1007400020F00700854618B020B5FFF791FDBDE801
:1007500020404FF000064FF000074FF000084FF028
:10076000000B21F00701AC46ACE8C009ACE8C009B9
:10077000ACE8C009ACE8C0098D46704710B5044626
:10078000AFF300802046BDE81040FFF75DBD0000DC
:1007900000487047200B00207047000001491820D6
:1007A000ABBEFEE72600020070B50C46054604F01D
:1007B000F9F82146284604F017FA2146284604F0A5
:1007C0005BFA2146284604F0B9FA2146284604F08F
:1007D0006FFB21462846BDE8704004F08BB900004D
:1007E00030B50F4887B0016841F48071016000683E
:1007F0004FF4807400F4807005900120CDE9004032
:1008000002900320074D03906946284600F0C2FA83
:1008100001222146284600F0ABFB07B030BD0000A6
:100820003038024000200240FEE7704730B5D1E981
:1008300001231A43D1E9033423431A434B690D685A
:100840001A438B691A43D1E90734012D496A0568B7
:100850006FF30E0505D01A4322430A432A43026070
:1008600008E0234329430B43416803606FF30E0103
:100870000A434260002030BD426942EA41014161C1
:1008800000207047F8B514460546D1E90002104330
:100890008A686FF01F03C96803EB421242EA4121E4
:1008A00008430090286100F069FB064609E0601CDF
:1008B00007D024B100F062FB801BA04201D90320C5
:1008C000F8BDA8698006F2D40020F8BDF0B56FF03D
:1008D0000F05D1E9003405EB04145B1E2E01234300
:1008E0008C682F0306EB04244FEA054C23430D8A42
:1008F0008E8ACC68097E4FF07F4E07EB05450CEBE6
:1009000006560EEB0161012A0CD082683F1107EBFD
:10091000043423432B43334302F070420B4313430D
:1009200083600FE0C2682B430B4302F07042816882
:10093000134301F070422103A1F58051314311436B
:10094000C36081600020F0BD30B50F4887B00168FA
:1009500041F00101016000684FF4006400F0010003
:1009600005900120CDE9004002900320074D03903F
:100970006946284600F00EFA00222146284600F07B
:10098000F7FA07B030BD00003038024000000240E6
:100990000122D102014800F0EBBA00000000024041
:1009A0002DE9F043374889B00024016841F0800107
:1009B00001600068802600F08000079001AA0125F0
:1009C00003270096DFF8C09082E8B00069464846E9
:1009D00000F0E0F94020CDE900056946484600F006
:1009E000D9F901F0B9FFDFF8A480C8F898420A20CD
:1009F00003F0B0FFC8F898520A2003F0ABFFCDE92E
:100A00000064CDE902476946484600F0C3F9642016
:100A100003F0A0FF042205A948F2401000F04CF8B2
:100A20008DF8184005AA1AA1002003F0BDF81BA1FB
:100A300005A8FFF7C5FD18B1012009B0BDE8F08396
:100A400002208DF8140048F24005012205A928462D
:100A500000F030F9012205A948F2500000F02CF80E
:100A60009DF814200FA1002003F09EF80A2003F047
:100A700071FF8DF81440012205A9284600F01AF9EB
:100A80000020DAE730380240001C02400080434278
:100A90004354502049443A25730D0A0035363838FE
:100AA0000000000044656661756C74205665723AFA
:100AB00025640D0A000000002DE9F04115460F469F
:100AC000044601F0F1FF282001F0BEFF02F02EF8ED
:100AD000200A01F0B9FF02F029F8E0B201F0B4FFFA
:100AE00002F024F801F0E0FF292001F0ADFF02F050
:100AF0001DF800246E1E09E0B44201D0012000E080
:100B0000002001F06DFF3855641CE4B2AC42F3D311
:100B1000BDE8F04101F0E8BF2DE9F1475C4E00244B
:100B20004FF00A0A307885B0401CC0B2B0FBFAF230
:100B30000AFB1201574DA046307009B10A2875D240
:100B400048F24E19012205A94846FFF7B5FF9DF866
:100B500014004FF0000701060AD500F00F00062828
:100B600006D28DF80C70012203A9484600F0A2F8C5
:100B70009DF81400010759D000F00F01062955D245
:100B8000FF2088408DF80C00C04395F81C9040F081
:100B9000C000287728892882688A68834FF0010876
:100BA000297F08FA04F0014225D03B48042202A91B
:100BB00030F81400FFF780FF95F82C009DF809101D
:100BC000C0079DF8080000EB012105EB440034D07C
:100BD00001819DF80A109DF80B2001EB0221418252
:100BE00005EB44002246418ACDE9004103892BA14F
:100BF000002002F0D9FF641CE4B2052CD0D32C49AC
:100C00002A894FF001080B8828469A4203D8428A65
:100C100049888A4209D99DF8141001F00F01012971
:100C200016D941890181818A698237709DF8140043
:100C300000F08F00802815D021E041829DF80A1035
:100C40009DF80B2001EB0221C1F548710181C7E736
:100C5000018A0181418B418280218DF8141085F831
:100C60001C90E3E7287F010602D520F0800005E014
:100C70004FF6FF712981698200F0E0002877307813
:100C8000F02801D986F800A006B04046BDE8F087FC
:100C9000F0000020C00000204A990008785B25641D
:100CA0005D3A25642C795B25645D3A25640D0A0064
:100CB000180500202DE9F04115460E460446002790
:100CC00001F0F2FE282001F0BFFE01F02FFF200A04
:100CD00001F0BAFE01F02AFFE0B201F0B5FE01F02A
:100CE00025FF002408E0305D01F0AEFE01F01EFF9C
:100CF000070003D1641CE4B2AC42F4D301F0F4FE6B
:100D00003846BDE8F08100002DE9FC4113491F2061
:100D1000134F086013A13A7F07F17800FFF7BAFA82
:100D2000102507F178044FF4A576CDE9005431463B
:100D30002B46C822084602F0D3F93A7F0FA120467D
:100D4000FFF7A8FACDE900541023C8224FF4AF7181
:100D5000304602F0C5F9BDE8FC8100009C0000208F
:100D60002406002056616C696420736174656C6CA4
:100D70006974653A25303264000000005669736971
:100D8000626C6520736174656C6C6974653A2530BA
:100D9000326400002DE9F84FDFF8A091002209F13C
:100DA000040A0AF1040B4FF00F080BF1040E0126A0
:100DB0000B6896403340B34271D14C68022C01D08D
:100DC000122C11D1D40800EB84073D6A5407E40EBD
:100DD00008FA04FC25EA0C05D1F810C00CFA04FC52
:100DE0004CEA050CC7F820C007685400032591F8A9
:100DF00004C0A5400CF0030CAF430CFA04FC4CEA11
:100E0000070CC0F800C04F68012F05D0022F03D097
:100E1000112F01D0122F11D18768D1F80CC0AF4328
:100E20000CFA04FC4CEA070CC0F808C04768B7434A
:100E30000E79C6F3001696403E434660C668AE4340
:100E40008D68A5403543C5604C68E4006FD53C4CC7
:100E5000256845F480452560246822F0030504F4E4
:100E600080440094374C2E19D6F808789407250F43
:100E700008FA05F4A743344CA04201D100242EE027
:100E8000324CA04201D1012429E0314CA04201D1D1
:100E9000022424E02F4CA04202D103241FE046E0AC
:100EA0002D4CA04201D1042419E02C4CA04201D1C8
:100EB000052414E02A4CA04201D106240FE0294C5D
:100EC000A04201D107240AE0274CA04201D1082406
:100ED00005E0264CA04201D1092400E00A24AC40E0
:100EE0003C43C6F80848D9F800404D464E689C433C
:100EF000F60300D51C432C60DAF8004055464E68D6
:100F00009C43B60300D51C432C60DBF800405D46D3
:100F10004E689C43F60200D51C432C60DEF800406E
:100F200075464E689C43B60200D51C432C60521C8B
:100F3000102AFFF43CAFBDE8F88F0000003C0140F0
:100F400044380240003001400000024000040240EA
:100F500000080240000C0240001002400014024051
:100F600000180240001C0240002002400024024001
:100F70000AB1816170470904FBE70000014800687D
:100F8000704700001C00002002480168491C0160F5
:100F9000704700001C0000200B4810B5016841F4A8
:100FA00000710160016841F480610160016841F4F1
:100FB00080710160052000F0BFF90F2000F006F8F5
:100FC00000F08AF9002010BD003C024010B5044634
:100FD00000F06CFC4FF47A71B0FBF1F001F0CCF949
:100FE00000222146501E00F087F9002010BD2DE997
:100FF000F041044690F8A00015460F4601281DD088
:10100000012684F8A060022084F8A10005EB850089
:1010100000EBC50004EB800034223830FFF79DFA66
:101020002A463946204602F04BFA2068466284F888
:10103000A160002084F8A000BDE8F0810220FBE759
:1010400070B5040004D094F8A100002510B106E0AA
:10105000012070BD84F8A050204600F06FF80220F7
:1010600084F8A1002068816921F070418161D4E990
:1010700001100143D4E9030210430143206882694F
:1010800011438161206882682B490A408260A08AEE
:10109000020420688368A669334313438360206891
:1010A000C2680A40C260A08B02042068C368266A36
:1010B00033431343C360206802690A400261A08C75
:1010C000020420680369A66A33431343036120685E
:1010D00042690A404261A08D010420684269236B85
:1010E0001A430A43426194F83500020294F836002C
:1010F00001042068C36A03F07F43C3622068C36AA7
:1011000094F83460114333430B43C3622068416B4E
:1011100041F0040141632068416B41F002014163E9
:101120002068816941F001018161C4F8A450012067
:1011300084F8A100002070BD00F800F030B53648FA
:1011400087B00025016841F080610160006800F00F
:101150008060059030481438016841F40001016056
:10116000016801F400010591016841F0020101608C
:10117000016801F002010591016841F02001016060
:10118000016801F020010591016841F04001016012
:10119000016801F040010591016841F080010160A2
:1011A000016801F080010591016841F480710160DE
:1011B0000068032400F4807005904FF40040009014
:1011C0000120CDE90204019069461448FFF7E2FDD1
:1011D0004FF4806000900220CDE901050E20CDE99A
:1011E000034069460E48FFF7D5FD4FF40C600090B0
:1011F00069460C48FFF7CEFD4FF47E4000906946EB
:101200000948FFF7C7FD40F2F760009069460748BC
:10121000FFF7C0FD07B030BD443802400000024077
:101220000014024000180240001C0240002002404E
:1012300070B5044690F8A0000E46012820D0012584
:1012400084F8A050022084F8A10003EB830000EB97
:10125000C30004EB800141F8386F886A3044C1E96B
:101260000102C86A1044C8601A46204602F028F9F4
:101270002068456284F8A150002084F8A00070BD69
:10128000022070BD2DE9F041044690F8A0000F4601
:1012900001281FD0012584F8A050022084F8A10065
:1012A00003EB830000EBC30004EB80010026E1E9BF
:1012B0000E672046C1E90262C1E90A721A4602F0CD
:1012C000FFF82068456284F8A15084F8A0600020EF
:1012D000BDE8F0810220FBE708B50020009008BDC2
:1012E00000F01F02012191404009800000F1E02040
:1012F000C0F8001170470000F0B40E4B1B68C3F338
:101300000223C3F10704042C00D904241D1D072D5A
:1013100001D2002300E0DB1E012606FA04F56D1E53
:101320000D409D409E40761E164045EA0601F0BCE9
:1013300002F079B90CED00E0064A00F007011068F0
:101340004FF6FF03184040EA0120034908431060AC
:10135000704700000CED00E00000FA052DE9F843AD
:101360001D48016841F0805101600068012700F0CC
:1013700080500090380490FAA0F0DFF86080B0FA56
:1013800080F048F82070FFF7F9FD04464FF47A75B5
:10139000134E04E0FFF7F2FD001BA84213D870685B
:1013A000C003F7D54FF4003090FAA0F0B0FA80F007
:1013B00048F82070FFF7E2FD044607E0FFF7DEFD86
:1013C000001BA84202D90320BDE8F883706880039F
:1013D000F4D50020F8E700004038024000000E423B
:1013E000007000400120010291FAA1F1024AB1FA15
:1013F00081F142F82100704700000E422DE9F84FBC
:1014000004460068DFF878829E4DC10747F6C07A2F
:101410004FF0E0464FF0010B4FF0000901D180077B
:101420004BD59949C1F86890FFF7A8FD074604E03D
:10143000FFF7A4FDC01B64287ED828680001F7D4FC
:1014400020789249C0070DD09AFAAAF26068B2FAE1
:1014500082F2904096FAA6F3A268B3FA83F39A4018
:10146000104308602078800718D5086896FAA6F21D
:1014700000F0E040B2FA82F2D0406268237B920131
:1014800042EA036242EA00700860D8F80010E2699C
:1014900021F01F01521E1143C8F800107A49C1F80B
:1014A00068B0FFF76BFD074604E0FFF767FDC01B60
:1014B000642841D828680001F7D52068410701D485
:1014C000000776D57049C1F87090FFF757FD0746C1
:1014D00004E0FFF753FDC01B64282DD82868C043E3
:1014E0008000F6D520786A4F40074FF0706C29D500
:1014F000386896FAA6F100F0E040B1FA81F1C840F0
:101500009AFAAAF22169B2FA82F291409CFAACF3FB
:101510006269B3FA83F39A40114396FAA6F2B2FADB
:1015200082F2904001433960D8F800106FF0FF0359
:1015300021F4F851226A00E079E003EB0222114322
:10154000C8F800102078000723D538689CFAACF161
:1015500000F07060B1FA81F1C8409AFAAAF22169EC
:10156000B2FA82F291409CFAACF2B2FA82F2904066
:10157000014396FAA6F2A069B2FA82F290400143C2
:101580003960D8F80010626A21F440311143C8F87C
:1015900000103D49C1F870B0FFF7F0FC064604E0CA
:1015A000FFF7ECFC801B642841D82868C04380000A
:1015B000F6D42078800651D532484F464030016835
:1015C00041F0805101600068324E00F08050009080
:1015D000306840F480703060FFF7D0FC054604E0CE
:1015E000FFF7CCFC401B642821D83068C005F7D534
:1015F000264E143E3068218D00F4407001F4407195
:1016000088422BD03068244920F44070C1F800B0E3
:101610000F603060800710D5FFF7B0FC054641F23F
:10162000883707E0FFF7AAFC401BB84202D9032025
:10163000BDE8F88F30688007F4D5A06A1149C0F37F
:1016400001220831032A13D0086820F4F81008603A
:101650003068218DC1F30B01084330602078C0064B
:1016600004D50E4994F82C00C1F8E0010020DFE712
:101670000A680B4B22F4F812184002430A60E7E7AD
:101680008C38024000380240000047428438024053
:101690008838024000700040400E47420010474228
:1016A000FFFCFF0F2DE9F05FDFF8F8A104460F46BD
:1016B000DAF80000DFF8F08100F00F02C8B27A49D2
:1016C000814641F2883608F10808BA4261D20246E2
:1016D0008AF80020DAF8000000F00F00B8427DD14F
:1016E0002078800707D5D8F80020A36822F0F00200
:1016F0001A43C8F800202078C0072DD06068012860
:101700001AD002281BD0032819D00968890700299C
:1017100064DAD8F80010474621F003010143C8F805
:101720000010FFF72BFC0546606801280FD0022847
:1017300018D003281CD027E009688903E7E7096867
:101740008901E4E7FFF71AFC401BB04258D838681B
:10175000C0F381000128F5D188E0FFF70FFC401BA2
:10176000B0424DD83868C0F381000228F5D17DE041
:101770003868FFF703FC401BB042F9D940E0FFF79F
:10178000FDFB401BB0423BD8386810F00C0FF6D17F
:101790006CE02078800707D5D8F80020A36822F0F5
:1017A000F0021A43C8F800202078C0074CD06068C7
:1017B000012828D0022829D0032827D009688907C2
:1017C000002949DAD8F8002022F003020243C8F8C1
:1017D0000020FFF7D3FB0546606800E03CE00128ED
:1017E0001DD0022829D0032838D0B3464646306899
:1017F00010F00C0F28D0FFF7C1FB411B5945F6D95B
:101800000320BDE8F09F09688903D9E709688901C9
:10181000D6E7FFF7B3FB411B594502D9F0E7B346C2
:1018200046463068C0F381000128F2D10CE0FFF792
:10183000A5FB411B594502D9E2E7B346464630684D
:10184000C0F381000228F2D18AF80090DAF8000093
:1018500000F00F00B84209D00120D2E744462068CA
:10186000FFF78CFB401BB042F9D9C9E7207840074D
:1018700007D5D8F80010E26821F4E0511143C8F808
:1018800000102078000708D5D8F80010226921F44C
:10189000604141EAC201C8F800100F20FFF796FB33
:1018A0000020AEE7003C02400038024010B500F0D6
:1018B00043F808490968F02292FAA2F201F0F00117
:1018C000B2FA82F2D140044A515CC8400349086030
:1018D00010BD000008380240FA500008080000203F
:1018E00010B5FFF7E3FF074909684FF4E05292FA99
:1018F000A2F201F4E051B2FA82F2D140024A515C04
:10190000C84010BD08380240FA50000810B5FFF773
:10191000CDFF074909684FF4604292FAA2F201F440
:101920006041B2FA82F2D140024A515CC84010BD17
:1019300008380240FA50000830B51948006810F025
:101940000C01184812D0184C04290ED008290DD1CA
:10195000134A121F1168136801F03F015D0247F638
:10196000C07304D5B4FBF1F003E0204630BDB0FBFA
:10197000F1F01168194093FAA3F3B3FA83F3D94055
:10198000484311684FF4403292FAA2F201F4403118
:10199000B2FA82F2D140491C4900B0FBF1F030BDEF
:1019A000083802400024F40040787D012DE9F84F0A
:1019B00004460078DFF8FCA2BF4DC0074FF00006D8
:1019C00048D0DAF800105046C1F38101012908D04F
:1019D0000068C0F3810002280AD1281D0068400277
:1019E00006D52868800335D56068002873D031E0BB
:1019F000DFF8C49209F1020989F80060FFF7BEFA26
:101A0000074641F2883804E0FFF7B8FAC11B4145A8
:101A10007AD828688003F7D4207989F800006068B4
:101A200060B1FFF7ABFA074604E0FFF7A7FAC11B66
:101A30004145EDD828688003F7D50BE0FFF79EFA03
:101A4000074604E0FFF79AFAC11B4145E0D8286831
:101A50008003F7D42078DFF86492800744D5DAF861
:101A60000010504611F00C0F4FF0F80809D0006834
:101A7000C0F3810002280BD18E48001F006840028D
:101A800006D42868800714D5E068012823D110E027
:101A9000E068D0B10120C9F80000FFF76FFA0746EF
:101AA00004E0FFF76BFAC01B6428B1D828688007F0
:101AB000F7D5286898FAA8F22169B2FA82F220F0E4
:101AC000F8009140084328600EE0C9F80060FFF775
:101AD00055FA074605E0EAE0FFF750FAC01B642814
:101AE00012D828688007F7D42078000725D5DFF8BA
:101AF000C4817348616908F16C0881B101210160FA
:101B0000FFF73CFA074605E07EE0FFF737FAC01B17
:101B1000642879D8D8F800008007F6D50DE0066073
:101B2000FFF72CFA074604E0FFF728FAC01B6428E9
:101B30006AD8D8F800008007F6D42078400753D53B
:101B40005C483830016841F0805101600068DFF87E
:101B5000748100F080500090D8F8001041F480713A
:101B6000C8F80010FFF70AFA074604E0FFF706FA84
:101B7000C01B642848D8D8F80000C005F6D5DFF8A7
:101B800034B10BF1680B8BF80060FFF7F7F90746EB
:101B900041F2883804E0FFF7F1F9C11B41457ED8D6
:101BA000DBF800008007F6D4207A8BF80000A068EC
:101BB00068B1FFF7E3F9074604E0FFF7DFF9C11B5F
:101BC00041456CD8DBF800008007F6D50CE0FFF744
:101BD000D5F9074604E0FFF7D1F9C11B41455ED8AE
:101BE000DBF800008007F6D4A069E8B3DAF800104B
:101BF000C1F3810102295AD0022806D0C9F86060D9
:101C0000FFF7BCF904464DE049E04F46C9F8606073
:101C1000FFF7B4F9064604E0FFF7B0F9801B64282B
:101C20003DD828688001F7D4D4E90701084347F676
:101C3000C07191FAA1F1626AB1FA81F18A40A16A98
:101C40004FF0FF3303EB51014FF4403393FAA3F30A
:101C5000B3FA83F399400A4310434FF0706292FA4B
:101C6000A2F2B2FA82F200E01FE0E16A914008437A
:101C70001049091F086001203866FFF77FF9044604
:101C800004E0FFF77BF9001B642808D8286880016E
:101C9000F7D50AE0FFF772F9001B642802D9032088
:101CA000BDE8F88F28688001F4D40020F8E701200F
:101CB000F6E70000083802400038024000004742C2
:101CC000800E47420070004070470068503050F866
:101CD000210070470068503040F821207047000014
:101CE0002DE9F74F0446007F8B4601281BD04FF0AB
:101CF000010884F81C80022060772168CA204862AD
:101D0000206853214162206880684FF0000640053A
:101D10004FF0FF074FF0030A4FF47A790FD5FFF722
:101D20002DF9054607E00220BDE8FE8FFFF726F9F2
:101D3000401B484511D82068C0684007F6D4206889
:101D4000816821F480618160FFF718F905460BE096
:101D5000FFF714F9401B484506D92068476284F80C
:101D60001DA026770320DFE72068C0684007EFD575
:101D70002168C1F814B02068816821F007018160F2
:101D800020688168029A114381600E48016841F41D
:101D9000800101600B480830016841F48001016056
:101DA0002068816841F4804181602068816841F445
:101DB000806181602068476284F81D80267700205A
:101DC000B2E70000003C01400449D1F8980218B184
:101DD0000020C1F8980270470120FAE700804242D3
:101DE00010B504460068C16849050CD580684004F8
:101DF00009D52046FFF7E8FF2068C16801F080019F
:101E000061F49061C16003494FF4800008600120D3
:101E1000607710BD143C01407047000010B50446C7
:101E20000068C168C9050CD58068C00409D5204682
:101E3000FFF7F2FF2068C16801F0800161F4C07112
:101E4000C1602068C16889050CD58068800409D507
:101E50002046FFF739FF2068C16801F0800161F476
:101E60002071C16003494FF40030086001206077A1
:101E700010BD0000143C014010B500680B464168DD
:101E80000D480140080CD870C1F304245C7001F0C7
:101E90003F049C70C1F34231197052B901F0BEFC8D
:101EA000D870587801F0BAFC5870987801F0B6FCF8
:101EB0009870002010BD00003FFFFF0010B50B46DA
:101EC0000168896A596001680969C1F30E01996066
:101ED000006801680E480140C1F305401870C1F365
:101EE00006245C7001F07F049C70402404EA1141D8
:101EF000D97052B901F092FC1870587801F08EFC3C
:101F00005870987801F08AFC9870002010BD00008D
:101F10007F7F7F0070B5040002D0607F10B106E0C3
:101F2000012070BD00202077204600F041F80220FB
:101F300060772168CA2048622168532048622046A1
:101F400001F080FCFF210028206803D041620420BA
:101F50006077E5E78268154B1A40826020688268E6
:101F600063681A43D4E904352B431A43826022681C
:101F7000E068106120680269238942EA0342026135
:101F80002068C26822F08002C2602068026C22F4DD
:101F9000802202642068026CA3691A4302642068EC
:101FA000416201206077002070BD0000BFFF8FFFFD
:101FB00010B510489AB00024016841F080510160CA
:101FC000006800F080501890FFF70CFA0820069483
:101FD0000090012468460594FFF7E8FC20200C904F
:101FE000000116900CA8FFF709FA034804601AB024
:101FF00010BD0000403802403C0E47422DE9F0473A
:102000000446007F0B46012825D04FF0010984F8D3
:102010001C9002206077587802B301F0FFFB98789B
:1020200001F0FCFB9878D97840EA01455878197896
:10203000000240EA413005432168CA204862216815
:1020400053204862204601F0FDFB0026FF274FF099
:10205000040858BB19E00220BDE8F087C10603D58B
:1020600000F0EF000A305870D87801F0E0FB02046D
:10207000587801F0DCFB42EA0022987801F0D7FBA7
:102080000243187842EA4035D6E70F4805402068F9
:1020900045602068C16821F08001C16020688068C7
:1020A00080060AD4204600F089F830B120684762E3
:1020B00084F81D8026770120CEE72068476284F8E7
:1020C0001D9026770020C7E73FFFFF002DE9F0476E
:1020D0000446007F0D46012811D04FF0010A84F814
:1020E0001CA0022060772068002680684FEA4060CC
:1020F00042B100281ADA287801F090FB17E002209C
:10210000BDE8F087002800DBEE70287801F08FFB37
:102110000204687801F08BFB42EA0022A87801F003
:1021200086FB0243E87842EA00470AE0EE70A878AE
:10213000297840EA01476878E978000240EA0140DE
:1021400007432168CA20486221685320486220461C
:1021500001F078FB4FF0FF084FF00409E0B9164892
:102160000740206807602068816821F48021816031
:10217000D5E903100143206882681143816020681B
:10218000C16821F08001C1602068806880060BD49E
:10219000204600F013F838B12168C1F8248084F893
:1021A0001D9026770120ABE72168C1F8248084F8D0
:1021B0001DA026770020A3E77F7F7F0070B505462E
:1021C0000068C16821F0A001C160FEF7D7FE044697
:1021D0004FF47A7606E0FEF7D1FE001BB04201D93B
:1021E000032070BD2868C0688006F4D5002070BD4B
:1021F00070B50D46040003D094F82C0010B107E030
:10220000012070BD002084F82D00204600F012F857
:10221000022084F82C00211D2068FEF707FBD4E97A
:1022200000022946FEF752FB012084F82C00002012
:1022300070BD0000304800B5016887B041F0010171
:102240000160006800F0010005902B480838016823
:1022500041F004010160016801F004010591016889
:1022600041F008010160016801F008010591016871
:1022700041F010010160016801F010010591016851
:1022800041F020010160016801F020010591016821
:1022900041F0400101600068694600F0400005908F
:1022A0000D20009002200190012002900320039055
:1022B0000C2004901148FEF76DFD4CF20370009065
:1022C00069460F48FEF766FD4FF683700090694639
:1022D0000C48FEF75FFD4FF63F00009069460A4844
:1022E000FEF758FD48F23710009069460748FEF7A0
:1022F00051FD07B000BD0000383802400008024020
:10230000000C02400010024000140240001802407D
:1023100010B5044690F82C00022809D0022084F859
:102320002C002068FEF7A8FA012084F82C00002079
:1023300010BD70B5044690F82C000D4602280CD054
:10234000022084F82C002068FEF79CFA28680228F6
:1023500004D0012084F82C00002070BD0520F9E78E
:102360004FF0E0210428086903D020F00400086140
:10237000704740F00400FAE710B5401EB0F1807FCE
:1023800001D3012010BD4FF0E02460610F216017E0
:1023900001F049F90020A06107202061002010BD54
:1023A0007047704710B5040003D094F8390010B19D
:1023B00007E0012010BD002084F83800204600F01E
:1023C0000CF8022084F83900211D206801F0DEFDA0
:1023D000012084F83900002010BD70470168CA68E8
:1023E00042F00102CA600068016841F00101016029
:1023F0000020704770B51E4E3078010613D41D4C76
:1024000041064FF6F5750FD540F080003070002181
:10241000204600F0C7F970602068016A2940016217
:102420002068016A016270BD002140207160307037
:102430002068026A41F211131A4207D1026A9B1006
:102440001A4203D1026822F0010202602068416250
:102450002068016A294001622068016A41F0020196
:1024600001622068016841F00101016070BD000057
:10247000B4000020A80A002070B504460068016975
:102480004FF00005C943890715D4C168C9438907BE
:1024900011D4E91E0161012020762068806980073F
:1024A000204602D0FFF7A6FF04E000F098F820468F
:1024B00000F044F9257620680169C943490717D41B
:1024C000C168C943490713D46FF0040101610220B8
:1024D00020762068806910F4407F204602D0FFF704
:1024E00089FF04E000F07BF8204600F027F925760C
:1024F00020680169C943090716D4C168C94309079F
:1025000012D46FF008010161042020762068C069B0
:102510008007204602D0FFF76DFF04E000F05FF86F
:10252000204600F00BF9257620680169C943C906E9
:1025300017D4C168C943C90613D46FF010010161F3
:10254000082020762068C06910F4407F204602D021
:10255000FFF750FF04E000F042F8204600F0EEF8EC
:10256000257620680169C943C90708D1C168C943F4
:10257000C90704D1891E0161204600F0FDF82068DA
:102580000169C943090609D4C168C943090605D4CC
:102590006FF0800101612046FFF702FF20680169AA
:1025A000C943490609D4C168C943490605D46FF037
:1025B00040010161204600F017F920680169C94314
:1025C00089060BD4C168C943890607D46FF020017E
:1025D00001612046BDE87040FFF7E3BE70BD704763
:1025E00070B5044690F838000D4601280DD001263C
:1025F00084F83860022084F8390042B1042A18D0E7
:10260000082A2AD00C2A4DD139E0022070BD20685A
:1026100001F028FD2068816941F00801816120688E
:10262000816921F004018161206881692A6911436F
:1026300011E0206801F042FD2068816941F40061E9
:1026400081612068816921F48061816120688169EC
:102650002A6941EA0221816124E0206801F060FDDD
:102660002068C16941F00801C1612068C16921F099
:102670000401C1612068C1692A69114311E0206821
:1026800001F07EFD2068C16941F40061C1612068EC
:10269000C16921F48061C1612068C1692A6941EA88
:1026A0000221C16184F83960002084F8380070BDCF
:1026B00010B5040003D094F8390010B107E00120F0
:1026C00010BD002084F83800204600F00DF80220EC
:1026D00084F83900211D206801F058FC012084F89D
:1026E0003900002010BD0000124800B5016887B015
:1026F00041F001010160006800F0010005900D4803
:102700001038016841F0010101600068032100F008
:10271000010005904FF4004000900220019001203C
:10272000CDE90201049069460348FEF733FB07B088
:1027300000BD000040380240000002407047000029
:1027400010B504460068012201F080FC08482168A9
:10275000814202D00748814203D1486C40F40040D6
:1027600048642068016841F001010160002010BD4B
:10277000000001400004014009490878020606D41F
:10278000420604D5C243920602D0401C087070472E
:1027900040F0800008704FF0FF3048607047000044
:1027A000B400002090F838300022012B0AD0012319
:1027B00080F8383041B1042909D008290AD00C2901
:1027C0000DD10AE00220704701684A6B07E00168FA
:1027D0008A6B04E00168CA6B01E001680A6C0021A1
:1027E00080F8381010467047704770B5040004D068
:1027F00094F83900002510B106E0012070BD84F87E
:102800003850204600F020F8022084F83900206873
:10281000C16821F40051C160204601F03DFE2068EE
:10282000016921F4904101612068416921F02A0188
:1028300041612068C16841F40051C160E563012035
:1028400084F83900002070BD70472DE9F047044638
:1028500090F8390099460D46012801D0122857D129
:1028600025B31AB394F83800012851D0012684F812
:1028700038600027E76394F83900122819D0222025
:1028800084F83900A285E2854FF48058E08D4B46EC
:10289000401EE085A0684FF0000240454FF0200147
:1028A000204616D101F0B2FEB0B904E00120BDE827
:1028B000F0873220E4E7206900282068406803D0D0
:1028C000C1B225F8011B12E0C0F3080125F8021B74
:1028D0000DE001F09BFE08B10320E8E72069002825
:1028E0002068406801D000F07F0005F8010BE08D02
:1028F0000028CBD194F83900322805D084F839600B
:1029000084F838700020D2E7122084F83900F7E705
:102910000220CCE7FEE7000070B50D4C0025C4F89E
:10292000A8520C48016821F440010160016841F49B
:1029300080010160C4F8AC52022004F52A7402F050
:1029400017F801202060022002F012F8256070BD07
:1029500000804042000402400E4810B5016886B075
:1029600041F0020101600068012400F002000590BE
:102970004FF44060CDE900040220CDE902406946F1
:102980000548FEF707FA0548C0F8AC42C0F8A8426F
:1029900006B010BD303802400004024000804042C2
:1029A00070B50D4C0026C4F8A8620C48016821F4EB
:1029B00040010160016841F4800101600125C4F813
:1029C000AC52022004F52A7401F0D2FF25600220E7
:1029D00001F0CEFF266070BD00804042000402403E
:1029E0002DE9F047814616480024016821F4400192
:1029F000016001680160134E254627464FF001082B
:102A0000C6F8A872022001F0B3FFC6F8A8826006DB
:102A1000040ED6F82C0208B1641CE4B2012001F0C7
:102A2000A7FF6D1CEDB2082DEAD3B9F1000F04D059
:102A3000FFF772FF2046BDE8F087FFF7B1FFF9E727
:102A400000040240008040422DE9F0410546144850
:102A5000016821F440010160016841F480010160D6
:102A6000104E0027C6F8A8723C464FF00108E8094E
:102A7000C6F8AC026806050E022001F079FFC6F820
:102A8000A882022001F074FFC6F8A872022001F0AB
:102A90006FFF641CE4B2082CE9D3BDE8F0810000AC
:102AA000000402400080404270B50D48016821F4E6
:102AB00040010160016841F480010160094C01207E
:102AC000C4F8AC02C4F8A802042004F52A7401F08A
:102AD0004FFF00256560042001F04AFF256070BDAE
:102AE00000040240008040420E4810B5016821F405
:102AF00040010160016841F4800101600A4C00203E
:102B0000C4F8A802C4F8AC02042004F52A7401F049
:102B10002FFF012020606060BDE81040042001F01C
:102B200027BF0000000402400080404270B51248F8
:102B30000024016821F440010160016801600F4D2B
:102B40000126C5F8AC62304601F012FFC5F8A86254
:102B5000012001F00DFF07E0641CE4B2FA2C03D958
:102B6000FFF7C2FF012070BDD5F82C020028F3D179
:102B7000C5F8A80270BD0000000402400080404279
:102B800070B51B4886B00025016841F00101016065
:102B9000016801F001010591016841F00401016043
:102BA000016801F004010591016841F080010160B4
:102BB0000068032400F08000059002200126CDE982
:102BC0000204CDE9006569460A48FEF7E3F87003A0
:102BD00003948DE8610069460748FEF7DBF80C2096
:102BE000009069460548FEF7D5F806B070BD0000B4
:102BF000303802400000024000080240001C024041
:102C000000F0E0BA2DE9F05F394C3A4DA071296827
:102C100039B100F0F7FAE88A2080288B6080BDE89F
:102C2000F09F33492C232A2589884FF0F00949F277
:102C3000413A2B2645F2105B4FF4305E4FF4487753
:102C40004FF4A07845F2103C4FF4F07258B1A4F85C
:102C50000080A4F80290514501D0614529D123811B
:102C60006581A68139E0A4F80090A4F8028051455E
:102C700001D0614508D123816581A681614531D1AB
:102C8000A4F8008062802DE0594508D1A4F808E03E
:102C90004FF4285060814FF42C50A08106E0A1F53C
:102CA000C85063381ED123816681A5812280678048
:102CB00018E0594508D1A4F808E04FF42850608185
:102CC0004FF42C50A08106E0A1F5C850633804D120
:102CD00023816581A68127806280614502D122809F
:102CE000A4F80280BDE8F05F002000F0AFB800005B
:102CF00018050020040600202DE9F04104463A485A
:102D00000D46006820B12046BDE8F04100F08EBAC3
:102D1000364E270A3146B0884989A0F513434FEA59
:102D20001528413B0CD0A0F5A643103B08D0A0F5D8
:102D3000AA43103B11D0A0F5C853633B27D04BE00A
:102D4000084600F003FA384600F0F4F9E0B200F06B
:102D5000F1F9B08900F0FAF938E0084600F0F6F928
:102D6000384600F0E7F97089401C80B200F0EEF9B7
:102D7000E0B200F0DFF9B08900F0E8F9404600F079
:102D8000D9F9B089401C80B200F0E0F921E0B079B7
:102D900018B93088001B401E84B2084600F0D6F9EE
:102DA000270A384600F0C6F9E0B200F0C3F9384609
:102DB00000F0C0F9E0B200F0BDF9B08900F0C6F94A
:102DC000404600F0B7F9E8B200F0B4F9404600F030
:102DD000B1F9E8B200F0AEF9054930890880881CE5
:102DE0000280BDE8F08100000406002018050020E4
:102DF000FEFF0760124810B5016886B041F001017E
:102E000001600068012400F0010005904FF40040CB
:102E1000CDE900040320CDE9024069460948FDF7E9
:102E2000B9FF00F07BFA0120FFF7ECFE0648C0F87E
:102E3000BC424FF6FF7000F0C5F906B010BD0000AF
:102E4000303802400000024000004042F0B56C4DB6
:102E500000232946AA79898841F66314012A01D002
:102E60001AB11BE0A14202D118E0A14216D10828F4
:102E700014D2DFE800F00406080A0C0E1012062037
:102E80000CE007200AE0042008E0052006E001200D
:102E900004E0002002E0032000E00220A1F5134737
:102EA00045F2103245F21056413F05D0914203D011
:102EB000B14201D0A14277D1082812D2DFE800F058
:102EC000110406080A0C0E1080230AE0402308E0D3
:102ED000C02306E0202304E0602302E0A02300E0FA
:102EE000E023B14202D14FF4585000E03620914225
:102EF00005D0B14203D0A14201D043F008031946E6
:102F000000F030F9AA88A2420AD098062888698879
:102F100002D5884202D303E0884201D92980688023
:102F20006889B24241D100F011F9002000F002F9A5
:102F30006889401C80B200F009F9002000F0FAF81E
:102F40006889801C80B200F001F92888401EC0F317
:102F50000F2000F0EFF86889C01C80B200F0F6F88E
:102F60002878401EC0B200F0E5F8A88900F0EEF81D
:102F7000002000F0DFF8A889401C80B200F0E6F8DD
:102F8000002000F0D7F8A889801C80B200F0DEF89D
:102F90006888401EC0F30F2000F0CCF8A889C01C40
:102FA00080B200F0D3F822E028E000F0CFF8002053
:102FB00000F0C0F8002000F0BDF82888401EC0F3E3
:102FC0000F2000F0B7F82878401EC0B200F0B2F829
:102FD000A88900F0BBF8002000F0ACF8002000F059
:102FE000A9F86888401EC0F30F2000F0A3F8A87865
:102FF000BDE8F040401EC0B200F09CB8F0BD00003B
:10300000180500202DE9F84F82461F460E468B46D4
:10301000580700D0012000EBD700790810FB01F021
:10302000203AC0B202F0FF090025009047E00C2FC3
:1030300010D0102F12D0182F14D0202F42D1224997
:1030400001EBC9104FF00008445D200610D51F4861
:10305000026811E009EB49001D4906E01D4901EB3A
:103060000910EFE71C4909EBC90001EB8000E9E713
:103070000A9828B91548426831465046FFF73CFE89
:103080006006040E1548761CB6B24088B04219D9C5
:10309000A6EB0B00B84209D10AF101001FFA80FA31
:1030A0000E485E46018851450CD906E008F1010042
:1030B00000F0FF08B8F1080FC7D36D1CEDB20098FF
:1030C0008542B4D3BDE8F88FDA6800089C00002080
:1030D0001A5100088E5500087E5B00081805002074
:1030E0002DE9F84F044600F0FF0810190D46DDE900
:1030F0000A761FFA80FA58191FFA80F94FF0000B70
:1031000011E0544502D3E819444685B24D450FD22B
:103110003B4629462046CDF800B0FFF773FF04EB8D
:10312000570084B2761C3278A2F120005E28E8D9DC
:10313000BDE8F88F01B5BDF80000ADF80000BDF89E
:1031400000000149088008BD0000086001B5BDF815
:103150000000ADF80000BDF800000149088008BD7E
:10316000FEFF0760024A1080901C0180704700003B
:10317000FEFF0760114810B5016886B041F02001DC
:10318000016000680E4C00F020000590C020009007
:103190000120019002900320039069462046FDF72C
:1031A000F9FD002240212046FDF7E2FE00228021A9
:1031B0002046FDF7DDFE06B010BD000030380240AD
:1031C0000014024008B500900548018BC08A491ED2
:1031D0008BB2401E82B20021084600F045F808BDBF
:1031E0000406002000B58DB00823099204900093D6
:1031F00006916846FEF702F9002800D001200DB0C4
:1032000000BD000010B5084B1C465875A1888AB255
:10321000218889B220B1012801D1D9821A8310BD39
:10322000DA82198310BD000004060020F0B50C4FAF
:1032300094B23D46DFF82CC02B68EA692D7D7E7D77
:103240005CF8255026B103FB01004243AC52F0BDAF
:103250007E68301A401E03FB001050432C52F0BD14
:1032600004060020A40000202DE9F843274EDDF8D5
:1032700020900024757D0DB1054606E077680D4667
:10328000B91A1A463B1A491E5B1E306896F814C0DC
:10329000DFF87C80521B871A58F82CC0F66900FBB7
:1032A000015006FB00C51B487F1EBFB2066846F4EE
:1032B00000060660006800F40000009016480668EA
:1032C00026F0010606604FF440360660022646638B
:1032D0000764C563591AF30303EB0242491C114307
:1032E0004164C0F83890016841F0010101605A0161
:1032F00002E0641C944202D241688907F9D58168D2
:1033000041F002018160BDE8F8830000040600205E
:10331000A40000203038024000B002402DE9FF41F7
:10332000414C4FF44870012620604FF4F07060600B
:10333000268166812E20A0811720E081D220208264
:1033400016206082320403214FF4C670FFF74AFF53
:1033500036482268374F0280616841800220E06170
:1033600033483860A4F1A800334B0025C0E900358C
:103370008560C5600561B4F808C0ACF10103436124
:103380006389A3F1010EC0F818E0B4F80CE0F4442E
:10339000ACF1010EC0F81CE0B4F80EE07344A3F1E8
:1033A000010EC0F820E0A2F1010EE644C0F824E0CE
:1033B000A1F1010E9E44C0F828E0B4F810E0724478
:1033C0006244521EC262628A11441944491E01635A
:1033D00080F8365080F8355080F83450FDF730FED4
:1033E00007200621CDE90205CDE90051FF23022285
:1033F0000020396800F024F8A088002280B20090F4
:103400002088114683B2104600F048F80020FFF7EC
:10341000F9FE0A482575C0F8BC6204B0681EBDE814
:10342000F041FFF7CFBE0000040600201805002081
:10343000000000C0A40000200068014000004042DD
:103440002DE9F0438DB0164614AA002492E88013AB
:10345000114D009402942A6801926D68CDE90463CD
:103460004FEA0823CDE9067303954FEA09230DF1CE
:10347000240E08938EE8260002468DF83240064856
:103480008DF831408DF830C06946A838FDF7AFFDA2
:103490000DB0BDE8F08300000406002070B51E46A4
:1034A000044603460548049DFDF7C2FE23462A460E
:1034B0003146BDE870400148FDF7E4BE5C050020E0
:1034C000F0B504688B88E568C5F30B452B441D04F3
:1034D000882303EBC213E65806F47046E6500468EE
:1034E0000F68E668C6F30B46761C3E442E43E65052
:1034F00003688C89DD68C5F30A052C4425048C24F7
:1035000004EBC2141E5906F470461E5103688F68FE
:10351000DE68C6F30A06761C3E442E431E519423F1
:10352000046803EBC213E55825F00705E55005686C
:103530000C69EC5091F8313005681F0291F8323077
:103540001C040B7E1E069C2303EBC21355F803C01C
:103550004FF0000C45F803C091F8305034433D4320
:1035600025430468E5509823046803EBC213E5582B
:1035700025F0FF05E55005684C69EC50A023046870
:1035800003EBC213E55840F20776B543E550D1E9A5
:1035900007452C430568EC50AC23046803EBC213C9
:1035A000E55844F803C005684C6AEC500B698BB3CE
:1035B000012B32D0042B32D0022B30D0032B2ED053
:1035C000072B2CD00123B024056804EBC2142E591C
:1035D00006F0E0262E51D1E90065AD1B0E8D5D434E
:1035E0005E43ED1C45EA064305682B51B42304688D
:1035F00003EBC213E5586FF30A05E5500468C96A86
:10360000E1500068842101EBC211425842F00102EE
:103610004250F0BDFFE70423D5E70323D3E702239D
:10362000D1E7FEE770470907090E002806DA00F027
:103630000F0000F1E02080F8141D704700F1E02039
:1036400080F8001470477047F8B525480668001DDB
:103650000568001D046823A1002000F0A5FA314888
:1036600031490068B0FBF1F230A1002000F09CFA73
:103670002B46224638A10020009600F095FA3BA187
:10368000002000F091FA17A1002000F08DFA38A276
:103690003AA1002000F088FA3CA23DA1002000F0F1
:1036A00083FA3FA241A1002000F07EFA43A100204E
:1036B00000F07AFA43A1002000F076FA47A100203A
:1036C00000F072FA4DA1002000F06EFA05A1002072
:1036D00000F06AFABDE8F84024A1002000F064BAC6
:1036E000107AFF1F2A2A2A2A2A2A2A2A2A2A2A2A3A
:1036F0002A2A2A2A2A2A2A2A2A2A2A2A2A2A2A2A2A
:103700002A2A2A2A2A2A2A2A2A2A2A2A2A2A2A2A19
:103710002A2A2A2A2A2A2A2A2A2A2A2A2A2A2A2A09
:103720002A0A0D000800002040420F000D0A4350F5
:1037300055203A2053544D33324634323949492CBE
:10374000204C5146503137362C20465245513A20B4
:1037500025644D487A0D0A00554944203D20253006
:103760003858202530385820253038580A0D0000A8
:103770005375706572204750530000002A204E6137
:103780006D652020203A2025730D0A00312E31006E
:103790002A2044656D6F2020203A2025730D0A00F1
:1037A000323031382D322D33000000002A204461A0
:1037B00074652020203A2025730D0A002A200D0A66
:1037C000000000002A205151202020203A203135CD
:1037D000333037353035200D0A0000002A20456D82
:1037E00061696C203A2031353330373530354071DE
:1037F000712E636F6D200D0A000000002A205757BC
:10380000572E574F51494F4E472E43430D0A000044
:103810000148FEF703BB0000D0060020010901EBC0
:10382000810100F00F0000EB4100C0B270470021A1
:1038300002E00A38C0B2491C0A28FAD2090740EA55
:103840001160704770B505460068C168490613D419
:103850004FF0FF31C160FDF791FB04464FF47A76DB
:1038600006E0FDF78BFB001BB04201D9032070BDC1
:103870002868C0684006F4D5002070BD174810B510
:103880001549016000217F22C0E90112FF22C0E931
:10389000032141618161FEF73DFB08B1022010BDAB
:1038A00000210E48FEF711FA45F24004A04210D064
:1038B000402338223621122000F024F8022205236A
:1038C0001146122000F00CF8224600210348FEF7B2
:1038D00001FA002010BD000000280040D0060020A2
:1038E00008B58DF802208DF801108DF800308DF8A4
:1038F0000300002269460248FEF780FB08BD000075
:10390000D006002000B585B08DF800008DF80110BC
:1039100000208DF802200390024604908DF80330B9
:1039200069460248FEF7D2FB05B000BDD006002074
:103930000B4B10B51B68DC6804F0800464F49064E1
:10394000DC6002460648FEF7CBF90222114603204E
:10395000FDF7D2FCBDE810400320FDF7C1BC00001C
:10396000D006002070B58CB000221E491E48FEF71C
:10397000A5FA1C4881780091437802781BA102A81F
:10398000FCF788FC102602ADCDE900653346D22253
:103990008C213220FFF7A4FB002219491248FEF7C0
:1039A0006BFA174C17A1A07800906378E27802A810
:1039B000FCF770FCCDE900651023D222A021322053
:1039C000FFF78EFB227815A102A8FCF763FCCDE976
:1039D00000651023D222B4213220FFF781FB0CB006
:1039E00070BD0000F4000020D006002054696D6511
:1039F0003A253032643A253032643A253032640058
:103A000002000020446174653A3230253032642D62
:103A1000253032642D253032640000005765656B17
:103A20003A2564000148FEF7DBB90000D00600200B
:103A300000B5164887B014490022C0E900120121E0
:103A4000816008211023C0E90313402343614FF430
:103A5000C073C0E906320A0202624A0242628A0266
:103A600082620220CDE9000106210291CDE9031016
:103A70000590069069460548FEF7BAFB034800F03A
:103A800007F807B000BD0000400100A02805002095
:103A900010B5002301221146184600F021F84FF41A
:103AA000FA7000F065FF002301220221184600F0A1
:103AB00017F8002308220321184600F011F84FF4EC
:103AC0000C7301220421002000F00AF8BDE8104028
:103AD00040F2AB210148FEF71BBC00002805002086
:103AE0001FB5002410B1012802D002E0102400E02C
:103AF0000824CDE90014CDE902234FF48052694631
:103B00000348FEF716FC002800D0012004B010BDC9
:103B1000280500202DE9F041884600EB40012148AE
:103B2000154600EBC104E16A01F0030002280BD046
:103B3000A06A626A801A401E01D5226A104485423A
:103B400002DD89072BD005464DB30027A06A616AC4
:103B5000461A761E01D5206A0644D4E90801411AA6
:103B6000B14201DC616A461AAE4200DB2E46616A50
:103B7000E069324608444146FCF7AAFC606A3744D3
:103B8000B044AD1B30446062606A216A884201D152
:103B900000206062002DD9D13846BDE8F0810020B8
:103BA000FBE70000240000200FB408B504A9009131
:103BB0006A46039900F003F801B05DF814FB2DE9A3
:103BC000F04198B0804607A8029040200026CDE939
:103BD0000306CDE9056815460C4614F8011B0029BB
:103BE00074D0252908D002A800F04EFE05980028C0
:103BF000F3DA18B0BDE8F0810020217823291BD02A
:103C00002B2916D02D290ED030290FD00022217853
:103C1000A1F130030A2B13D202EB820201EB420224
:103C2000303A641CF3E740F0010007E040F0020086
:103C300004E040F0040001E040F00800641CDCE710
:103C40000023CFB22E2F0BD114F8011FA1F13007A2
:103C50000A2F05D203EB830301EB4303303BF3E769
:103C60006C290DD068290BD070294AD00BDC25298E
:103C700014D058292BD063290CD0642911D112E01B
:103C800014F8011BECE773292CD0752916D078297C
:103C900007D11CE02868011D2960017802A800F006
:103CA000F3FD641CA2E729680F1D2F600968CDE9A8
:103CB00000200A2202A800F01AFDF2E729680F1D71
:103CC0002F600968CDE900200A2207E023E0296877
:103CD0000F1D2F600968CDE90020102202A800F016
:103CE00067FDDEE72868011D2960076817F8011BDA
:103CF0000029D6D002A800F0C7FD05980028F5DA03
:103D0000CFE72868011D296001680820CDE9000679
:103D100003461022E2E7059800287FF76AAF04986F
:103D200020B1024607A94046FFF7F4FEDDE9041082
:103D3000084405905DE7704770B51E4C92B00025B1
:103D4000266846F080562660246804F0805411945A
:103D5000194C266846F44046266024680DF1240C70
:103D600004F4404411940124009401940224069424
:103D70008CE80D006605CDE907616846FDF716FE83
:103D800000B1FEE7FDF7EAFA00B1FEE70CA90F204B
:103D900081E831004FF4A0500F904FF48050109004
:103DA00005210CA8FDF77EFC002800D0FEE712B02C
:103DB00070BD0000403802400070004030B501780E
:103DC0002D2906D000240022134601782E2903D085
:103DD00004E00124401CF6E710F8011FA1F13005B2
:103DE000092D09D802EB820201EB42025B1CDBB217
:103DF000401C303A0F2BE8D30CB1504230BD104676
:103E000030BD70B502782D2A03D0002500231C4652
:103E100015E0491E0125C9B2401CF7E702782E2A99
:103E200001D110F8012FA2F13006092E09D803EBB9
:103E30008303641C02EB4303401CE4B2303B8C421E
:103E4000ECD30DB1584270BD184670BDFDF79CB85B
:103E50001048016841F4700101600F48016841F0A9
:103E6000010101600C4A00210832116002680B4B0D
:103E70001A400260031D0A4A1A60026822F4802276
:103E8000026005480C30016002495806803908601C
:103E90007047000088ED00E000380240FFFFF6FEAA
:103EA0001030002410B50F4A04464FF08040C2E99C
:103EB00000010020C2E9020410611046FEF7F8FB81
:103EC000084960203C3100220860600848600220F8
:103ED00088600448FEF784FBBDE8104000210148DB
:103EE000FEF72EBC500A00200148FEF7C5BA0000BC
:103EF000A80A00200B4800680169C943C90710D10E
:103F0000891E01610849088838B1401E0004000C70
:103F1000088002D105490120087005484168012048
:103F200008477047E40A0020AE000020B0000020DF
:103F3000C000002038B5124A0023146844F0200461
:103F400014601268104C02F020020092C4E90230A2
:103F50000C4A2361C4E900212046FEF723FA2046DB
:103F6000FEF73CFA012200213720FDF7C5F9372082
:103F7000FDF7B6F92068016841F00101016038BD24
:103F80004038024000140040E40A0020F0B5026806
:103F9000234D244E244FDFF894C0254B4FF0804E24
:103FA000A84209D0704507D0B04205D0B84203D02E
:103FB000604501D0984203D122F070044A68224340
:103FC000A8421BD0704519D0B04217D0B84215D0C6
:103FD000604513D0984211D0164CA0420ED0164C1A
:103FE000A0420BD0154CA04208D0154CA04205D0E1
:103FF000144CA04202D0144CA04203D122F44074CD
:10400000CA68224302608A68C2620A688262A84261
:1040100001D0984201D10969016301214161F0BDDC
:10402000000001400004004000080040000C004077
:1040300000040140004001400044014000480140AC
:1040400000180040001C00400020004010B5012373
:10405000046A8B409C430462036A8A4013430362F0
:1040600010BD000030B5026A22F001020262056A4A
:10407000426883690C6823F073031C438B6825F046
:1040800002052B430B4DA84202D00B4DA8420BD189
:1040900023F00805CB6822F440722B434D6923F0CE
:1040A000040315438A692A43426084614968416375
:1040B000036230BD000001400004014030B5026AD7
:1040C00022F010020262036A426884690D6824F4D7
:1040D000E64444EA05248D6823F0200343EA0513EF
:1040E0000D4DA84202D00D4DA8420ED1CD6823F04F
:1040F000800343EA05134D6922F4406242EA8502D7
:104100008D6923F0400342EA850242608461496878
:104110008163036230BD00000000014000040140E3
:1041200030B5026A22F480720262036A4268C4698E
:1041300023F4007324F073050C682C438D6843EA64
:1041400005230D4DA84202D00C4DA8420ED1CD68DA
:1041500023F4006343EA05234D6922F4405242EA06
:1041600005128D6923F4806342EA05124260C4613E
:104170004968C163036230BD000001400004014092
:1041800030B5026A22F480520262036A4268C4694E
:104190000D6824F4E64444EA05248D6823F40053B2
:1041A00043EA0533084DA84202D0084DA84204D185
:1041B0004D6922F4804242EA85124260C461496836
:1041C0000164036230BD00000000014000040140B2
:1041D0004FF080414863704710B5FCF7E1FB084899
:1041E0000649084A416090F82C10927941F080010C
:1041F00002F00102114380F82C1010BD190B0008C9
:10420000C0000020180500202DE9F05F00251E4F9A
:104210002C462E46C7F89852DFF87080C8F88C52AA
:10422000C8F8A05207F5267700F012F9062000F032
:104230009FFB3E60012000F09BFB4FF00109C7F897
:104240000090484600F094FB3E60B2464E46DFF8D0
:1042500040B04FF6FF79A7F5267709EA4404C7F87E
:1042600098A2012000F084FBC7F89862DBF80C02EA
:1042700008B1641CA4B26D1CEDB2102DEDD3200961
:10428000C8F8A062BDE8F09F0080434200004442AD
:1042900000004342FEB5064600246D463046FFF757
:1042A000B3FF25F81400641CA4B2052CF6D300213A
:1042B0004C1CA0B20BE035F8113035F810209342B9
:1042C00003D925F8112025F81030401C80B20528AC
:1042D000F1D3A1B20429EBD30021012035F810203D
:1042E000401C114480B289B20428F7D30320B1FBEB
:1042F000F0F0FEBD2DE9F041074F06460D46387837
:10430000FFF7C8FF04467878FFF7C4FF34802880A1
:104310000120BDE8F0810000BC00002070B586B02F
:104320000C460546694604A8FFF7E4FF00282FD095
:1043300001A903A8FFF7DEFF002829D0BDF80C3043
:10434000BDF81020934203D803F13200824205D316
:104350009A421FD802F1320083421BD2BDF80410EA
:10436000BDF80000814203D801F13206B04204D307
:1043700088420FD8323081420CD2D01840082880B1
:10438000BDF80000BDF8041008444008208001205A
:1043900006B070BD0020FBE72B4910B5D1F81C1208
:1043A0002A4C31B1207F010642D520F080002077D1
:1043B00045E00200254800F1120100F1080002D09A
:1043C000FFF7ACFF2AE0FFF7A9FF38B3B4F92800E4
:1043D00094ED081A00EE100A208900EE900AB8EE5B
:1043E000C00AF8EE600A01EE200ABCEEC00A10EE28
:1043F000100A2081B4F92A0094ED091A00EE100A7F
:10440000608A00EE900AB8EEC00AF8EE600A01EE8B
:10441000200ABCEEC00A10EE100A6082207F00065F
:104420000DD4C020207720892082608A608306E036
:104430000020208260834FF6FF7020816082207F01
:1044400000F0800010BD000000804342C00000204A
:104450002DE9F04700240E4E0E4F0546A0464FF0C2
:104460000109280601D5484600E04046C6F88C02FE
:104470006806050EC7F89882012000F079FAC7F89F
:104480009892641CE4B2082CEBD3BDE8F0870000DE
:1044900000004442008043422DE9F0410446006898
:1044A0000169E26821F440510A4302612068C16851
:1044B00049F20C6291432369A268E5691A43636972
:1044C0002B431A430A43C2602068416921F44072B9
:1044D000A16911434161E06964263225B0F5004FBE
:1044E000484A494920681DD0884201D0904269D18C
:1044F000FDF70CFA00EBC00101EB00106168B0465B
:104500008900B0FBF1F1B1FBF8F6FDF7FFF900EB24
:10451000C00101EB001061688900B0FBF1F7FDF705
:10452000F5F968E0884201D0904219D1FDF7EEF923
:1045300000EBC00101EB00106168B0464900B0FB20
:10454000F1F1B1FBF8F6FDF7E1F900EBC00101EB89
:10455000001061684900B0FBF1F7FDF7D7F918E0EA
:10456000FDF7BEF900EBC00101EB00106168B04639
:104570004900B0FBF1F1B1FBF8F6FDF7B1F900EB42
:10458000C00101EB001061684900B0FBF1F7FDF7D5
:10459000A7F900EBC00101EB001061684900B0FB16
:1045A000F1F1B1FBF8F06FF01801484307EB800020
:1045B00005EB0011B1FBF8F0216866F31F1088606D
:1045C000BDE8F081FDF78CF900EBC00101EB0010B4
:1045D0006168B0468900B0FBF1F1B1FBF8F6FDF778
:1045E0007FF900EBC00101EB001061688900B0FBAE
:1045F000F1F7FDF775F900EBC00101EB0010616800
:104600008900CCE700140140001001402DE9F0477B
:104610001D4690460F460446FCF7B0FC06465FEA8E
:1046200008004FF000094FF0010808D030E0681C86
:1046300005D095B1FCF7A2FC801BA8420DD82068DC
:10464000006837EA0000F2D127E0681C20D025B1CD
:10465000FCF794FC801BA8421AD92068C16821F09D
:104660008001C1602068C16821F02001C16020681C
:10467000C16821F48071C1602068416921F00101A5
:10468000416184F8398084F838900320BDE8F087D0
:104690002068006837EA0000D7D00020F6E7000065
:1046A000104808B500680068C043800618D44FF46D
:1046B0007A73012269460B48FEF7C7F80A499DF84C
:1046C00000200888074B40330344401C08801A70C0
:1046D000142048800888B0F5487F01D90020088060
:1046E00008BD0000F0060020AC000020FEE72DE928
:1046F000FC5F0E008046DDE90C47C6F100009946DC
:104700009246834600D40846012502E0B0FBFAF049
:104710006D1C5045FAD2A94500D94D4624B1002E52
:1047200001DB780700D5641EB80702D5B9F1000F88
:1047300010D0F8070ED16CB12046641EA84209D9EA
:104740002021404600F0A0F8D8F80C000028F2DA4A
:10475000BDE8FC9F002E02DA5E462D2102E07807BC
:1047600007D52B21404600F08FF8D8F80C00002820
:10477000EEDB07F00300022810D1B9F1000F0DD1D4
:1047800064B12046641EA84208D93021404600F09A
:104790007BF8D8F80C000028F2DAD9E7CDE9004719
:1047A0004B4652463146404600F002F8D0E7000042
:1047B0002DE9F84F8246DDE90A4B01259946174657
:1047C000884608462E4602E0B0FBF7F0761CB84259
:1047D000FAD2B14500D94E465FEACB701AD1CCB1BE
:1047E0005FEA8B7002D5B9F1000F02D02020009053
:1047F0000AE03020FBE75046009900F045F8DAF86F
:104800000C0000283BDB2CB12046641EB042F2D8DD
:1048100000E07D43B8FBF5F0B84201D3012000E091
:1048200000204A46A9F10109012A01DD012100E029
:1048300000210843EDD1DFF84C90B8FBF5F000FB08
:10484000158819F80010504600F01EF8DAF80C0030
:10485000002803DBB5FBF7F5002DEED15FEACB7046
:104860000DD0002C0BD02046641EB04207D9202169
:10487000504600F009F8DAF80C000028F1DABDE83B
:10488000F88F00000A51000810B50446D4E9013041
:10489000421C934205DB23681954A260E068401C67
:1048A000E060D4E90102824209D121682069FFF762
:1048B00031F9A168884203D04FF0FF30E06010BDAD
:1048C0000020A06010BD30380A2801D201207047B6
:1048D0000020704710B5FCF75FFB08230222192166
:1048E0004FF4B470FFF728FAB42000F029F84FF421
:1048F000E13000F0A7FBFEF73DFCFEF741F9FFF7C2
:1049000097F8FEF777FAFCF71FF8FEF7B7FF0B48AA
:104910000068804742F227310920FFF70BFB59213D
:1049200040F2F310FFF7BEFAFBF75AFFFEF78CFEDA
:10493000BDE810404FF4FA7000F00CB8C000002041
:1049400010B504460420FDF70BFD0148046010BDBE
:104950002000002070B5054600244FF47A7603E06D
:10496000304600F005F8641CAC42F9D370BD00007D
:1049700070B54FF0E02500216C69094AAB691268F7
:104980005043AA699A42FCD002D2A3EB020302E090
:10499000A4EB02063344194413468142F1D370BD9F
:1049A0002000002070B5002646542C21FBF786FD20
:1049B00000287DD0451C02212846FFF722FA4C4CE6
:1049C000AD1C022104F8620F2846FFF71AFA607046
:1049D000AD1C02212846FFF714FAA070A81C2C2158
:1049E000623CFBF76BFD05007DD0451C022128468B
:1049F000FFF707FAA4F84E00AD1C02212846FFF786
:104A000000FA42F210714843ED1C2065042128464B
:104A1000FFF7F7F9216D084420652C21281DFBF7CD
:104A20004DFD00285FD010F8011F532901D04E29F9
:104A300059D184F854102C21FBF740FD050052D0C9
:104A4000451C03212846FFF7DCF9A4F85600ED1CAD
:104A500002212846FFF7D5F942F210714843ED1CB8
:104A6000A06504212846FFF7CCF9A16D0844A06594
:104A70002C21281DFBF722FD002834D010F8011F3F
:104A8000452901D0572901D184F85C102C21FBF76E
:104A900015FD002827D010F8011F312924D0322914
:104AA00022D066702C21FBF709FD00281BD000E006
:104AB00019E0401C0546FFF781F92077A81C2C213E
:104AC000FBF7FCFC00280ED0401C0546FFF776F9EA
:104AD00020832C212846FBF7F1FC002803D0401C42
:104AE000FFF76CF9606070BD01216170DAE70000CA
:104AF0002406002070B5002242542C21FBF7DEFC76
:104B000000286DD0451C02212846FFF77AF9354C64
:104B1000AD1C0221A4F84E002846FFF772F942F2BC
:104B200010714843ED1C206504212846FFF769F900
:104B3000216D08442065281D2C21FBF7BFFC0028AF
:104B40004ED010F8011F532901D04E2948D184F8C6
:104B500054102C21FBF7B2FC002841D0451C032146
:104B60002846FFF74EF9A4F85600ED1C022128460E
:104B7000FFF747F942F210714843ED1CA06504218C
:104B80002846FFF73EF9A16D0844A065281D2C2199
:104B9000FBF794FC002823D010F8011F452901D011
:104BA000572901D184F85C102C21FBF787FC0028E1
:104BB00016D0451C02212846FFF723F904F8620F9E
:104BC000AD1C02212846FFF71CF96070AD1C0221C4
:104BD0002846FFF716F9A070A81C2C21FBF76EFCE5
:104BE00070BD00002406002070B5002242542C2124
:104BF000FBF764FC00283CD01E4E10F8011F3172F8
:104C00002C21FBF75BFC002833D0451C40787072E8
:104C100000242C212846FBF751FC002829D0401CF9
:104C20000546FFF7CBF83119641CE4B288720C2CEE
:104C3000EFD32C212846FBF741FC002819D0401C5B
:104C40000446FFF7BBF8F0822C212046FBF736FC28
:104C500000280ED0401C0446FFF7B0F830832C210A
:104C60002046FBF72BFC002803D0401CFFF7A6F8DA
:104C7000708370BD240600202DE9F04700224254C5
:104C80002C21FBF71BFC002854D02C21401CFBF7E7
:104C900015FC00284ED0401C0446FFF78FF800F0AA
:104CA000FF092C212046FBF709FC002842D0401CBC
:104CB0000646FFF783F8DFF88080002488F81C00A0
:104CC0002C213046FBF7FAFB002833D0401C074666
:104CD000FFF774F84FEA8901091F0E1906EB080562
:104CE0002C21A8723846FBF7E9FB002822D0401C93
:104CF0000746FFF763F868772C213846FBF7DEFBA1
:104D0000002817D0401C0746FFF758F8014608EB6B
:104D1000460041852C213846FBF7D0FB002809D0FE
:104D2000461C3046FFF74AF8641CE4B285F842009E
:104D3000042CC5D3BDE8F0872406002070B50025FB
:104D400045542C21FBF7BAFB002825D0461C022134
:104D50003046FFF756F8554CB61C022104F8620F96
:104D60003046FFF74EF86070B61C02213046FFF760
:104D700048F8A070F61C03213046FFF742F8A080E7
:104D80002C213046623CFBF799FB002804D010F838
:104D9000011F412901D0657070BD012161702C2176
:104DA000401CFBF78BFB0028F6D0451C022128464F
:104DB000FFF727F8A4F84E00AD1C02212846FFF7A4
:104DC00020F842F210714843ED1C2065042128466A
:104DD000FFF717F8216D08442065281D2C21FBF7EB
:104DE0006DFB0028D8D010F8011F532901D04E299F
:104DF000D2D184F854102C21FBF760FB0028CBD0D3
:104E0000451C03212846FEF7FCFFA4F85600ED1CC4
:104E100002212846FEF7F5FF42F210714843ED1CCF
:104E2000A06504212846FEF7ECFFA16D0844A065AB
:104E3000281D2C21FBF742FB0028ADD010F8011FE4
:104E4000452901D0572901D184F85C102C21FBF7AA
:104E500035FB0028A0D0401C0546FEF7AFFF2067B9
:104E60002C212846FBF72AFB002895D0401C05463C
:104E7000FEF7A4FFA4F86A002C212846FBF71EFBCE
:104E8000002889D0451C02212846FEF7BAFF84F885
:104E90006100AD1C022128465E34FEF7B2FFA0700F
:104EA000A81C0221FEF7ADFF208070BD2406002063
:104EB00070B5002242542C21FBF700FB002839D0AA
:104EC000401C0546FEF77AFF1B4C2C21A4F86A0013
:104ED0002846FBF7F3FA00282CD02C21401CFBF7C6
:104EE000EDFA002826D0401C0546FEF767FFA4F81F
:104EF0006C002C212846FBF7E1FA00281AD02C215F
:104F0000401CFBF7DBFA002814D0401C0546FEF7D6
:104F100055FF20672C212846FBF7D0FA002809D03E
:104F20002C21401CFBF7CAFA002803D0401CFEF7D6
:104F300045FF606770BD000024060020491E89B24D
:104F4000FBF732BC1CB5FFF7C5FCFBF721FD0021C8
:104F50000420FEF7EDFC2A4E4FF478454FF6FF7023
:104F60003560FDF74DFE2749D1F8A002002843D057
:104F70000020C1F8A00224480088FFF729F9DFF8D3
:104F80008C90DFF88CA04FF020084FF4827B21A09A
:104F90003560CDE90080444620235A46282132203E
:104FA000FEF79EF820A0CDE900402023F0225021FA
:104FB0003220FEF795F8FEF7D5FCD9F89C02494659
:104FC000E0B10020C1F89C023220FFF7C3FCFBF7E0
:104FD0009BFE9AF800100129D9D1164C00278AF8B7
:104FE000007021881448FFF7A9FF228813A1002030
:104FF000FEF7DAFD2780CAE70120BAE70120E1E7E2
:105000009C0000200000444200000020008042423A
:10501000B0000020537570657220524742204469E9
:1050200073706C61790000004C5444432054455324
:1050300054000000AC0000203007002025640D0A59
:1050400000000000F0B50646244887B0002501683E
:1050500041F001010160006800F0010005901F4867
:105060001430016841F0100101600068022400F072
:10507000100005904FF40070CDE900040120CDE947
:1050800002040720164F049069463846FBF782FE5B
:1050900060020090694602943846FBF77BFE124C92
:1050A00010482060C4E90165E5600C202561C4E971
:1050B00005052046FDF799FB2068C16841F02001F5
:1050C000C1602520FCF70CF9022200212520FCF705
:1050D00013F90648058007B0F0BD000030380240E3
:1050E0000000024000100140F0060020AC0000204B
:1050F0004FF04070E1EE100A70470000000001021E
:105100000304010203040607080930313233343541
:10511000363738394142434445460000000000001C
:10512000000000000000000000003F400000000000
:105130000000000030004000300040000000090086
:105140000BC03D000BC03D00090018C024407FE0AB
:10515000224031800000180024C01B000D80324026
:10516000018003801C4027401C8007400040100045
:1051700060000000000000000000000000000000CF
:105180001F80204040200000402020401F80000061
:105190000000090006001F8006000900000004004E
:1051A00004003F80040004000000001000600000C4
:1051B00000000000000004000400040004000400DB
:1051C000000000000040000000000000000000207F
:1051D00001C006003800400000001F802040204031
:1051E00020401F800000000010403FC00040000031
:1051F000000018C0214022402440184000001080C8
:105200002040244024401B80000002000D001100BB
:105210003FC0014000003C802440244024402380C3
:1052200000001F80244024403440038000003000F0
:10523000200027C03800200000001B8024402440AC
:1052400024401B8000001C0022C0224022401F80FE
:105250000000000000000840000000000000000006
:1052600000000460000000000000000004000A00CC
:1052700011002080404009000900090009000900D0
:10528000000000004040208011000A0004001800C7
:10529000200023402400180000001F8020402740E9
:1052A00029401F400000004007C039000F0001C026
:1052B000004020403FC0244024401B8000001F804D
:1052C0002040204020403080000020403FC020404F
:1052D00020401F80000020403FC024402E4030C0AE
:1052E000000020403FC024402E00300000000F008E
:1052F0001080204022403380020020403FC0040044
:1053000004003FC02040204020403FC020402040BB
:1053100000000060202020203FC02000200020400E
:105320003FC024400B0030C0204020403FC0204000
:105330000040004000C03FC03C0003C03C003FC0F4
:10534000000020403FC00C4023003FC020001F80D1
:105350002040204020401F80000020403FC02440CB
:105360002400180000001F802140214020E01FA0E1
:10537000000020403FC02440260019C0004018C053
:1053800024402440224031800000300020403FC0B3
:1053900020403000000020003F80004000403F805F
:1053A000200020003E0001C0070038002000380027
:1053B00007C03C0007C038000000204039C006008C
:1053C00039C0204000002000384007C0384020008D
:1053D0000000304021C02640384020C000000000BE
:1053E00000007FE0402040200000000070000C0022
:1053F0000380004000000000402040207FE00000CB
:10540000000000002000400020000000000000100C
:1054100000100010001000100010000000004000FC
:10542000000000000000000002800540054003C0AD
:10543000004020003FC00440044003800000000002
:105440000380044004400640000000000380044044
:1054500024403FC000400000038005400540034059
:105460000000000004401FC0244024402000000031
:1054700002E0055005500650042020403FC0044083
:10548000040003C000400000044027C000400000AA
:10549000000000100010041027E000000000204071
:1054A0003FC00140070004C00440204020403FC0EE
:1054B00000400040000007C0040007C0040003C013
:1054C0000000044007C00440040003C00040000086
:1054D00003800440044003800000041007F00450DF
:1054E000044003800000000003800440045007F0E3
:1054F0000010044007C00240040004000000000047
:1055000006400540054004C00000000004001F8064
:10551000044000400000040007800040044007C031
:1055200000400400070004C00180060004000600DB
:1055300001C0070001C006000000044006C00100D1
:1055400006C0044000000410071004E001800600BB
:1055500004000000044005C00640044000000000B4
:10556000000004007BE0402000000000000000007C
:10557000FFF000000000000040207BE0040000007D
:10558000000040008000400020002000400000009B
:10559000000000000000000000000000000000000B
:1055A000000000001FCC000C000000000000000004
:1055B0000800300060000800300060000000022099
:1055C00003FC1E20022003FC1E200220000000001D
:1055D0000E1811043FFF10840C78000000000F002B
:1055E00010840F3800C00778188400780000007815
:1055F0000F8410C411240E9800E4008400080800F1
:1056000068007000000000000000000000000000C2
:105610000000000007E0181820044002000000000D
:1056200040022004181807E00000000000000240BB
:10563000024001800FF00180024002400000008023
:10564000008000800FF800800080008000000001D2
:10565000000D000E0000000000000000000000002F
:1056600000800080008000800080008000800000BA
:10567000000C000C00000000000000000000000012
:1056800000060018006001800600180020000000DD
:1056900007F0080810041004080807F000000000D4
:1056A000080408041FFC00040004000000000000BF
:1056B0000E0C10141024104411840E0C0000000075
:1056C0000C1810041104110412880C700000000062
:1056D00000E00320042408241FFC00240000000034
:1056E0001F9810841104110410881070000000002D
:1056F00007F00888110411041888007000000000E9
:105700001C00100010FC13001C0010000000000022
:105710000E3811441084108411440E38000000002B
:105720000700088C10441044088807F000000000AF
:1057300000000000030C030C00000000000000004B
:105740000000000101060000000000000000000051
:10575000008001400220041008081004000002200C
:10576000022002200220022002200220000000006D
:10577000100408080410022001400080000000000E
:105780000E001200100C106C10800F00000003E0DF
:105790000C1813E4142417C4082807D000000004D0
:1057A000003C03C41C40074000E4001C000410043B
:1057B0001FFC1104110411040E880070000003E0A6
:1057C0000C1810041004100410081C100000100421
:1057D0001FFC100410041004080807F00000100457
:1057E0001FFC1104110417C4100408180000100451
:1057F0001FFC1104110017C010000800000003E096
:105800000C181004100410441C7800400000100410
:105810001FFC10840080008010841FFC1004000016
:10582000100410041FFC100410040000000000030A
:105830000001100110011FFE1000100000001004F4
:105840001FFC110403801464181C100400001004D1
:105850001FFC1004000400040004000C00001004ED
:105860001FFC1F0000FC1F001FFC100400001004A0
:105870001FFC0C04030000E010181FFC100007F0D0
:105880000808100410041004080807F000001004B1
:105890001FFC10841080108010800F00000007F0A3
:1058A000081810241024101C080A07F20000100425
:1058B0001FFC1104110011C011300E0C0004000077
:1058C0000E1C11041084108410441C3800001800B1
:1058D000100010041FFC100410001800000010003D
:1058E0001FF810040004000410041FF8100010003A
:1058F0001E0011E0001C007013801C0010001FC06F
:10590000103C00E01F0000E0103C1FC0000010042D
:10591000180C163401C001C01634180C1004100005
:105920001C00130400FC13041C00100000000804F9
:10593000101C1064108413041C04101800000000D4
:10594000000000007FFE4002400240020000000014
:1059500030000C0003800060001C00030000000009
:105960004002400240027FFE0000000000000000F4
:105970000000200040004000400020000000000126
:105980000001000100010001000100010001000010
:105990004000400020000000000000000000000067
:1059A0000098012401440144014400FC000410005B
:1059B0001FFC008801040104008800700000000042
:1059C0000070008801040104010400880000000048
:1059D000007000880104010411081FFC000400008D
:1059E00000F8014401440144014400C800000000E3
:1059F000010401040FFC110411041100180000003F
:105A000000D601290129012901C90106000010045D
:105A10001FFC008401000100010400FC00040000E0
:105A20000104190419FC0004000400000000000037
:105A3000000300010101190119FE0000000010041B
:105A40001FFC0024004001B4010C01040000000010
:105A5000100410041FFC00040004000000000104F6
:105A600001FC0104010001FC0104010000FC01042F
:105A700001FC008401000100010400FC000400009E
:105A800000F8010401040104010400F80000010110
:105A900001FF00850104010400880070000000007F
:105AA0000070008801040104010501FF00010104E8
:105AB000010401FC008401040100018000000000D9
:105AC00000CC0124012401240124019800000000DD
:105AD0000100010007F801040104000000000100BA
